:020000040000FA
:060000000A128A11FC2F18
:100F72004130831203139F008E30831603139F00A8
:100F82001330F200F20BC32FC62F831203131F1567
:100F92001F19C92F1E08F400831603131E08F3003D
:100FA2007408F1007308F000080041308312031343
:100FB2009F008E30831603139F00F501F601F92F6F
:100FC200FF30831203138800FF3087000A128A1150
:100FD200B9270A128A117108F6007008F50000306C
:100FE2007602643003197502031CE12F8312031386
:0E0FF20088018701E72F83010A128A11D62F8A
:02400E007A3FF7
:00000001FF
